:02000000BE2818
:10000800A000030E8312A2000A08A3008A018C1C18
:100018001D28280825208312A100210A95000230F6
:1000280021079B00A80A2808963A0319A8018312F9
:100038008C10831223088A00220E8300A00E200E43
:1000480009008312A40082074334463449344B34F0
:100058004E3450345334563458345A345D345F3443
:1000680062346434663468346A346C346E347034A0
:100078007234743475347734783479347B347C341E
:100088007D347E347E347F348034803481348134CE
:1000980081348134813481348134803480347F34B4
:1000A8007E347E347D347C347B34793478347734D0
:1000B80075347434723470346E346C346A34683421
:1000C8006634643462345F345D345A345834563498
:1000D800533450344E344B34493446344334413429
:1000E8003E343B3439343634343431342E342C34C1
:1000F8002A3427342534223420341E341C341A344C
:10010800183416341434123410340F340D340C34BB
:100118000B340934083407340634063405340434FF
:10012800043403340334033403340334033403340E
:1001380004340434053406340634073408340934E6
:100148000B340C340D340F34103412341434163488
:1001580018341A341C341E342034223425342734FD
:100168002A342C342E3431343434363439343B3454
:100178003E3441340F308316860083128701F030F5
:1001880083168700831206168612861306138316B3
:100198009F018312A80195019B0184308316920068
:1001A8000C30831297000C309D0083168C14043099
:1001B800831292000B1783160C138B178312861762
:1001C8008312A501A60181309F00640064006400C9
:1001D8006400A701640064006400640083121F15B2
:1001E80083121F19F42883121E08A5070318A60AEC
:1001F800A70FEE28C8302602031802298312A5018A
:10020800A60191309F006400640064006400A701A7
:10021800640064006400640083121E08A5070318C4
:10022800A60AA70F0C29C9302602031CE4288B1341
:02023800E428B8
:00000001FF
