:0200000048288E
:10000800A000030E8312A1000A08A2008A0124148A
:100018008C1C4028A41C27282508642083129500DE
:10002800A41D1D28071087109D010C309700871507
:10003800A4118312A50A2508963A031D3E28A50196
:10004800A410A4153E2883122508642083129B005F
:10005800A41D35288711071197010C309D0007143E
:10006800A4118312A50A2508963A031D3E28A50166
:10007800A414A41583128C10831222088A00210E5E
:100088008300A00E200E09000F308316860083120D
:100098008701F030831687008312A4102415A50168
:1000A80095019B014230831692000C3083129D000B
:1000B80083168C140430831292000B178B17632855
:1000C8008312A300820721342234233423342434B6
:1000D8002434253426342634273428342834293443
:1000E80029342A342B342B342C342C342D342E340C
:1000F8002E342F342F3430343034313431343234D8
:1001080032343334333434343434353435343634A7
:100118003634373437343834383438343934393479
:100128003A343A343A343B343B343B343C343C3450
:100138003C343C343D343D343D343D343E343E342F
:100148003E343E343E343E343F343F343F343F3413
:100158003F343F343F343F343F343F343F343F34FF
:100168003F343F343F343F343F343F343F343F34EF
:100178003E343E343E343E343E343E343D343D34E9
:100188003D343D343C343C343C343C343B343B34E7
:100198003B343A343A343A343934393438343834EC
:1001A80038343734373436343634353435343434F7
:1001B8003434333433343234323431343134303407
:1001C80030342F342F342E342E342D342C342C3418
:1001D8002B342B342A34293429342834283427342E
:1001E8002634263425342434243423342334223446
:0201F8002134B0
:00000001FF
