:02000000A7282F
:10000800A000030E8312A1000A08A2008A0124148A
:10001800250886208316920083128C1C5D28A41C58
:1000280038282508652083129500A41D212807106B
:100038009D010C3097008715A4118312241D2D28CB
:1000480025081D3A031D2A2824115B288312A50AB6
:100058005B288312A508031D35282415A410A415B0
:100068005B288312A5035B28831225086520831269
:100078009B00A41D4528871197010C309D0007148B
:10008800A4118312241D512825081D3A031D4E284A
:1000980024115B288312A50A5B288312A508031D77
:1000A80059282415A414A4155B288312A5038312C8
:1000B8008C10831222088A00210E8300A00E200EC5
:1000C80009008312A300820703340A341134183458
:1000D8001F3425342C34333439343F3445344B34CD
:1000E800513456345B346034653469346E34713459
:1000F800753478347B347D3480348134833484346B
:10010800853485348312A3008207A634AA34AA341E
:10011800AA34AA34AA34AA34AA34AA34AA34AA34E7
:10012800A934A934A934A934A934A934A934A934DF
:10013800A834A834A834A834A834A834A734A734D9
:10014800A734A734A7340F3083168600831287019B
:10015800F030831687008312A4102415A501950199
:100168009B01A630831692000C3083129D008316E3
:0E0178008C140430831292000B178B17C228D0
:00000001FF
